
testrvp.elf:     file format elf32-avr

Sections:
Idx Name          Size      VMA       LMA       File off  Algn
  0 .data         00000000  00800100  00000210  00000284  2**0
                  CONTENTS, ALLOC, LOAD, DATA
  1 .text         00000210  00000000  00000000  00000074  2**1
                  CONTENTS, ALLOC, LOAD, READONLY, CODE
  2 .stab         000006cc  00000000  00000000  00000284  2**2
                  CONTENTS, READONLY, DEBUGGING
  3 .stabstr      00000097  00000000  00000000  00000950  2**0
                  CONTENTS, READONLY, DEBUGGING
  4 .comment      0000002f  00000000  00000000  000009e7  2**0
                  CONTENTS, READONLY
  5 .debug_aranges 000000c8  00000000  00000000  00000a16  2**0
                  CONTENTS, READONLY, DEBUGGING
  6 .debug_info   00000baf  00000000  00000000  00000ade  2**0
                  CONTENTS, READONLY, DEBUGGING
  7 .debug_abbrev 00000290  00000000  00000000  0000168d  2**0
                  CONTENTS, READONLY, DEBUGGING
  8 .debug_line   0000056d  00000000  00000000  0000191d  2**0
                  CONTENTS, READONLY, DEBUGGING
  9 .debug_frame  000001cc  00000000  00000000  00001e8c  2**2
                  CONTENTS, READONLY, DEBUGGING
 10 .debug_str    0000021e  00000000  00000000  00002058  2**0
                  CONTENTS, READONLY, DEBUGGING
 11 .debug_loc    00000647  00000000  00000000  00002276  2**0
                  CONTENTS, READONLY, DEBUGGING
 12 .debug_ranges 000000c0  00000000  00000000  000028bd  2**0
                  CONTENTS, READONLY, DEBUGGING

Disassembly of section .text:

00000000 <__vectors>:
   0:	0c 94 56 00 	jmp	0xac	; 0xac <__ctors_end>
   4:	0c 94 60 00 	jmp	0xc0	; 0xc0 <__bad_interrupt>
   8:	0c 94 60 00 	jmp	0xc0	; 0xc0 <__bad_interrupt>
   c:	0c 94 60 00 	jmp	0xc0	; 0xc0 <__bad_interrupt>
  10:	0c 94 60 00 	jmp	0xc0	; 0xc0 <__bad_interrupt>
  14:	0c 94 60 00 	jmp	0xc0	; 0xc0 <__bad_interrupt>
  18:	0c 94 60 00 	jmp	0xc0	; 0xc0 <__bad_interrupt>
  1c:	0c 94 60 00 	jmp	0xc0	; 0xc0 <__bad_interrupt>
  20:	0c 94 60 00 	jmp	0xc0	; 0xc0 <__bad_interrupt>
  24:	0c 94 60 00 	jmp	0xc0	; 0xc0 <__bad_interrupt>
  28:	0c 94 60 00 	jmp	0xc0	; 0xc0 <__bad_interrupt>
  2c:	0c 94 60 00 	jmp	0xc0	; 0xc0 <__bad_interrupt>
  30:	0c 94 60 00 	jmp	0xc0	; 0xc0 <__bad_interrupt>
  34:	0c 94 60 00 	jmp	0xc0	; 0xc0 <__bad_interrupt>
  38:	0c 94 60 00 	jmp	0xc0	; 0xc0 <__bad_interrupt>
  3c:	0c 94 60 00 	jmp	0xc0	; 0xc0 <__bad_interrupt>
  40:	0c 94 60 00 	jmp	0xc0	; 0xc0 <__bad_interrupt>
  44:	0c 94 60 00 	jmp	0xc0	; 0xc0 <__bad_interrupt>
  48:	0c 94 60 00 	jmp	0xc0	; 0xc0 <__bad_interrupt>
  4c:	0c 94 60 00 	jmp	0xc0	; 0xc0 <__bad_interrupt>
  50:	0c 94 60 00 	jmp	0xc0	; 0xc0 <__bad_interrupt>
  54:	0c 94 60 00 	jmp	0xc0	; 0xc0 <__bad_interrupt>
  58:	0c 94 60 00 	jmp	0xc0	; 0xc0 <__bad_interrupt>
  5c:	0c 94 60 00 	jmp	0xc0	; 0xc0 <__bad_interrupt>
  60:	0c 94 60 00 	jmp	0xc0	; 0xc0 <__bad_interrupt>
  64:	0c 94 60 00 	jmp	0xc0	; 0xc0 <__bad_interrupt>
  68:	0c 94 60 00 	jmp	0xc0	; 0xc0 <__bad_interrupt>
  6c:	0c 94 60 00 	jmp	0xc0	; 0xc0 <__bad_interrupt>
  70:	0c 94 60 00 	jmp	0xc0	; 0xc0 <__bad_interrupt>
  74:	0c 94 60 00 	jmp	0xc0	; 0xc0 <__bad_interrupt>
  78:	0c 94 60 00 	jmp	0xc0	; 0xc0 <__bad_interrupt>
  7c:	0c 94 60 00 	jmp	0xc0	; 0xc0 <__bad_interrupt>
  80:	0c 94 60 00 	jmp	0xc0	; 0xc0 <__bad_interrupt>
  84:	0c 94 60 00 	jmp	0xc0	; 0xc0 <__bad_interrupt>
  88:	0c 94 60 00 	jmp	0xc0	; 0xc0 <__bad_interrupt>
  8c:	0c 94 60 00 	jmp	0xc0	; 0xc0 <__bad_interrupt>
  90:	0c 94 60 00 	jmp	0xc0	; 0xc0 <__bad_interrupt>
  94:	0c 94 60 00 	jmp	0xc0	; 0xc0 <__bad_interrupt>
  98:	0c 94 60 00 	jmp	0xc0	; 0xc0 <__bad_interrupt>
  9c:	0c 94 60 00 	jmp	0xc0	; 0xc0 <__bad_interrupt>
  a0:	0c 94 60 00 	jmp	0xc0	; 0xc0 <__bad_interrupt>
  a4:	0c 94 60 00 	jmp	0xc0	; 0xc0 <__bad_interrupt>
  a8:	0c 94 60 00 	jmp	0xc0	; 0xc0 <__bad_interrupt>

000000ac <__ctors_end>:
  ac:	11 24       	eor	r1, r1
  ae:	1f be       	out	0x3f, r1	; 63
  b0:	cf ef       	ldi	r28, 0xFF	; 255
  b2:	da e0       	ldi	r29, 0x0A	; 10
  b4:	de bf       	out	0x3e, r29	; 62
  b6:	cd bf       	out	0x3d, r28	; 61
  b8:	0e 94 d3 00 	call	0x1a6	; 0x1a6 <main>
  bc:	0c 94 06 01 	jmp	0x20c	; 0x20c <_exit>

000000c0 <__bad_interrupt>:
  c0:	0c 94 00 00 	jmp	0	; 0x0 <__vectors>

000000c4 <LCDsendCommand>:
	LCP&=~(1<<LCD_RS);
	_delay_ms(1);
}
void LCDsendCommand(uint8_t cmd)	//Sends Command to LCD
{
	LDP=(cmd&0b11110000);
  c4:	98 2f       	mov	r25, r24
  c6:	90 7f       	andi	r25, 0xF0	; 240
  c8:	95 b9       	out	0x05, r25	; 5
	LCP|=1<<LCD_E;		
  ca:	28 9a       	sbi	0x05, 0	; 5
	#else
		//round up by default
		__ticks_dc = (uint32_t)(ceil(fabs(__tmp)));
	#endif

	__builtin_avr_delay_cycles(__ticks_dc);
  cc:	e9 ef       	ldi	r30, 0xF9	; 249
  ce:	f0 e0       	ldi	r31, 0x00	; 0
  d0:	31 97       	sbiw	r30, 0x01	; 1
  d2:	f1 f7       	brne	.-4      	; 0xd0 <LCDsendCommand+0xc>
  d4:	00 c0       	rjmp	.+0      	; 0xd6 <LCDsendCommand+0x12>
  d6:	00 00       	nop
	_delay_ms(1);
	LCP&=~(1<<LCD_E);
  d8:	28 98       	cbi	0x05, 0	; 5
  da:	e9 ef       	ldi	r30, 0xF9	; 249
  dc:	f0 e0       	ldi	r31, 0x00	; 0
  de:	31 97       	sbiw	r30, 0x01	; 1
  e0:	f1 f7       	brne	.-4      	; 0xde <LCDsendCommand+0x1a>
  e2:	00 c0       	rjmp	.+0      	; 0xe4 <LCDsendCommand+0x20>
  e4:	00 00       	nop
	_delay_ms(1);
	LDP=((cmd&0b00001111)<<4);	
  e6:	f0 e1       	ldi	r31, 0x10	; 16
  e8:	8f 9f       	mul	r24, r31
  ea:	c0 01       	movw	r24, r0
  ec:	11 24       	eor	r1, r1
  ee:	85 b9       	out	0x05, r24	; 5
	LCP|=1<<LCD_E;		
  f0:	28 9a       	sbi	0x05, 0	; 5
  f2:	89 ef       	ldi	r24, 0xF9	; 249
  f4:	90 e0       	ldi	r25, 0x00	; 0
  f6:	01 97       	sbiw	r24, 0x01	; 1
  f8:	f1 f7       	brne	.-4      	; 0xf6 <LCDsendCommand+0x32>
  fa:	00 c0       	rjmp	.+0      	; 0xfc <LCDsendCommand+0x38>
  fc:	00 00       	nop
	_delay_ms(1);
	LCP&=~(1<<LCD_E);
  fe:	28 98       	cbi	0x05, 0	; 5
 100:	e9 ef       	ldi	r30, 0xF9	; 249
 102:	f0 e0       	ldi	r31, 0x00	; 0
 104:	31 97       	sbiw	r30, 0x01	; 1
 106:	f1 f7       	brne	.-4      	; 0x104 <LCDsendCommand+0x40>
 108:	00 c0       	rjmp	.+0      	; 0x10a <LCDsendCommand+0x46>
 10a:	00 00       	nop
 10c:	08 95       	ret

0000010e <LCDinit>:
 10e:	85 ea       	ldi	r24, 0xA5	; 165
 110:	9e e0       	ldi	r25, 0x0E	; 14
 112:	01 97       	sbiw	r24, 0x01	; 1
 114:	f1 f7       	brne	.-4      	; 0x112 <LCDinit+0x4>
 116:	00 c0       	rjmp	.+0      	; 0x118 <LCDinit+0xa>
 118:	00 00       	nop
	_delay_ms(1);
}
void LCDinit(void)//Initializes LCD
{
	_delay_ms(15);
	LDP=0x00;
 11a:	15 b8       	out	0x05, r1	; 5
	LCP=0x00;
 11c:	15 b8       	out	0x05, r1	; 5
	LDDR|=1<<LCD_D7|1<<LCD_D6|1<<LCD_D5|1<<LCD_D4;
 11e:	84 b1       	in	r24, 0x04	; 4
 120:	88 67       	ori	r24, 0x78	; 120
 122:	84 b9       	out	0x04, r24	; 4
	LCDR|=1<<LCD_E|1<<LCD_RW|1<<LCD_RS;
 124:	84 b1       	in	r24, 0x04	; 4
 126:	87 60       	ori	r24, 0x07	; 7
 128:	84 b9       	out	0x04, r24	; 4
   //---------one------
	LDP=0<<LCD_D7|0<<LCD_D6|1<<LCD_D5|1<<LCD_D4; //4 bit mode
 12a:	88 e1       	ldi	r24, 0x18	; 24
 12c:	85 b9       	out	0x05, r24	; 5
	LCP|=1<<LCD_E|0<<LCD_RW|0<<LCD_RS;		
 12e:	28 9a       	sbi	0x05, 0	; 5
 130:	e9 ef       	ldi	r30, 0xF9	; 249
 132:	f0 e0       	ldi	r31, 0x00	; 0
 134:	31 97       	sbiw	r30, 0x01	; 1
 136:	f1 f7       	brne	.-4      	; 0x134 <LCDinit+0x26>
 138:	00 c0       	rjmp	.+0      	; 0x13a <LCDinit+0x2c>
 13a:	00 00       	nop
	_delay_ms(1);
	LCP&=~(1<<LCD_E);
 13c:	28 98       	cbi	0x05, 0	; 5
 13e:	e9 ef       	ldi	r30, 0xF9	; 249
 140:	f0 e0       	ldi	r31, 0x00	; 0
 142:	31 97       	sbiw	r30, 0x01	; 1
 144:	f1 f7       	brne	.-4      	; 0x142 <LCDinit+0x34>
 146:	00 c0       	rjmp	.+0      	; 0x148 <LCDinit+0x3a>
 148:	00 00       	nop
	_delay_ms(1);
	//-----------two-----------
	LDP=0<<LCD_D7|0<<LCD_D6|1<<LCD_D5|1<<LCD_D4; //4 bit mode
 14a:	85 b9       	out	0x05, r24	; 5
	LCP|=1<<LCD_E|0<<LCD_RW|0<<LCD_RS;		
 14c:	28 9a       	sbi	0x05, 0	; 5
 14e:	89 ef       	ldi	r24, 0xF9	; 249
 150:	90 e0       	ldi	r25, 0x00	; 0
 152:	01 97       	sbiw	r24, 0x01	; 1
 154:	f1 f7       	brne	.-4      	; 0x152 <LCDinit+0x44>
 156:	00 c0       	rjmp	.+0      	; 0x158 <LCDinit+0x4a>
 158:	00 00       	nop
	_delay_ms(1);
	LCP&=~(1<<LCD_E);
 15a:	28 98       	cbi	0x05, 0	; 5
 15c:	e9 ef       	ldi	r30, 0xF9	; 249
 15e:	f0 e0       	ldi	r31, 0x00	; 0
 160:	31 97       	sbiw	r30, 0x01	; 1
 162:	f1 f7       	brne	.-4      	; 0x160 <LCDinit+0x52>
 164:	00 c0       	rjmp	.+0      	; 0x166 <LCDinit+0x58>
 166:	00 00       	nop
	_delay_ms(1);
	//-------three-------------
	LDP=0<<LCD_D7|0<<LCD_D6|1<<LCD_D5|0<<LCD_D4; //4 bit mode
 168:	80 e1       	ldi	r24, 0x10	; 16
 16a:	85 b9       	out	0x05, r24	; 5
	LCP|=1<<LCD_E|0<<LCD_RW|0<<LCD_RS;		
 16c:	28 9a       	sbi	0x05, 0	; 5
 16e:	89 ef       	ldi	r24, 0xF9	; 249
 170:	90 e0       	ldi	r25, 0x00	; 0
 172:	01 97       	sbiw	r24, 0x01	; 1
 174:	f1 f7       	brne	.-4      	; 0x172 <LCDinit+0x64>
 176:	00 c0       	rjmp	.+0      	; 0x178 <LCDinit+0x6a>
 178:	00 00       	nop
	_delay_ms(1);
	LCP&=~(1<<LCD_E);
 17a:	28 98       	cbi	0x05, 0	; 5
 17c:	e9 ef       	ldi	r30, 0xF9	; 249
 17e:	f0 e0       	ldi	r31, 0x00	; 0
 180:	31 97       	sbiw	r30, 0x01	; 1
 182:	f1 f7       	brne	.-4      	; 0x180 <LCDinit+0x72>
 184:	00 c0       	rjmp	.+0      	; 0x186 <LCDinit+0x78>
 186:	00 00       	nop
	_delay_ms(1);
	//--------4 bit--dual line---------------
	LCDsendCommand(0b00101000);
 188:	88 e2       	ldi	r24, 0x28	; 40
 18a:	0e 94 62 00 	call	0xc4	; 0xc4 <LCDsendCommand>
   //-----increment address, cursor shift------
	LCDsendCommand(0b00001110);
 18e:	8e e0       	ldi	r24, 0x0E	; 14
 190:	0e 94 62 00 	call	0xc4	; 0xc4 <LCDsendCommand>
 194:	08 95       	ret

00000196 <LCDcursorOnBlink>:
{
	LCDsendCommand(0x0E);
}
void LCDcursorOnBlink(void)	//displays LCD blinking cursor
{
	LCDsendCommand(0x0F);
 196:	8f e0       	ldi	r24, 0x0F	; 15
 198:	0e 94 62 00 	call	0xc4	; 0xc4 <LCDsendCommand>
 19c:	08 95       	ret

0000019e <LCDcursorOFF>:
}
void LCDcursorOFF(void)	//turns OFF cursor
{
	LCDsendCommand(0x0C);
 19e:	8c e0       	ldi	r24, 0x0C	; 12
 1a0:	0e 94 62 00 	call	0xc4	; 0xc4 <LCDsendCommand>
 1a4:	08 95       	ret

000001a6 <main>:

int main()
{
// 	DDRB  = 0b10000000;
// 	PORTB = 0b10000000;
	DDRC  = 0b11111111;
 1a6:	8f ef       	ldi	r24, 0xFF	; 255
 1a8:	87 b9       	out	0x07, r24	; 7
	PORTC = 0b01000000;
 1aa:	90 e4       	ldi	r25, 0x40	; 64
 1ac:	98 b9       	out	0x08, r25	; 8
	DDRD  = 0b11111111;
 1ae:	8a b9       	out	0x0a, r24	; 10
	PORTD = 0b00100000;
 1b0:	90 e2       	ldi	r25, 0x20	; 32
 1b2:	9b b9       	out	0x0b, r25	; 11
 1b4:	2f ef       	ldi	r18, 0xFF	; 255
 1b6:	31 ee       	ldi	r19, 0xE1	; 225
 1b8:	94 e0       	ldi	r25, 0x04	; 4
 1ba:	21 50       	subi	r18, 0x01	; 1
 1bc:	30 40       	sbci	r19, 0x00	; 0
 1be:	90 40       	sbci	r25, 0x00	; 0
 1c0:	e1 f7       	brne	.-8      	; 0x1ba <main+0x14>
 1c2:	00 c0       	rjmp	.+0      	; 0x1c4 <main+0x1e>
 1c4:	00 00       	nop
	_delay_ms(100);
	DDRB  = 0b11111111;
 1c6:	84 b9       	out	0x04, r24	; 4
	LCDinit();
 1c8:	0e 94 87 00 	call	0x10e	; 0x10e <LCDinit>
 1cc:	2f ef       	ldi	r18, 0xFF	; 255
 1ce:	31 ee       	ldi	r19, 0xE1	; 225
 1d0:	84 e0       	ldi	r24, 0x04	; 4
 1d2:	21 50       	subi	r18, 0x01	; 1
 1d4:	30 40       	sbci	r19, 0x00	; 0
 1d6:	80 40       	sbci	r24, 0x00	; 0
 1d8:	e1 f7       	brne	.-8      	; 0x1d2 <main+0x2c>
 1da:	00 c0       	rjmp	.+0      	; 0x1dc <main+0x36>
 1dc:	00 00       	nop
	_delay_ms(100);
	while(1) {
			LCDcursorOnBlink();
 1de:	0e 94 cb 00 	call	0x196	; 0x196 <LCDcursorOnBlink>
 1e2:	9f ef       	ldi	r25, 0xFF	; 255
 1e4:	21 ee       	ldi	r18, 0xE1	; 225
 1e6:	34 e0       	ldi	r19, 0x04	; 4
 1e8:	91 50       	subi	r25, 0x01	; 1
 1ea:	20 40       	sbci	r18, 0x00	; 0
 1ec:	30 40       	sbci	r19, 0x00	; 0
 1ee:	e1 f7       	brne	.-8      	; 0x1e8 <main+0x42>
 1f0:	00 c0       	rjmp	.+0      	; 0x1f2 <main+0x4c>
 1f2:	00 00       	nop
			_delay_ms(100);
			LCDcursorOFF();
 1f4:	0e 94 cf 00 	call	0x19e	; 0x19e <LCDcursorOFF>
 1f8:	8f ef       	ldi	r24, 0xFF	; 255
 1fa:	91 ee       	ldi	r25, 0xE1	; 225
 1fc:	24 e0       	ldi	r18, 0x04	; 4
 1fe:	81 50       	subi	r24, 0x01	; 1
 200:	90 40       	sbci	r25, 0x00	; 0
 202:	20 40       	sbci	r18, 0x00	; 0
 204:	e1 f7       	brne	.-8      	; 0x1fe <main+0x58>
 206:	00 c0       	rjmp	.+0      	; 0x208 <main+0x62>
 208:	00 00       	nop
 20a:	e9 cf       	rjmp	.-46     	; 0x1de <main+0x38>

0000020c <_exit>:
 20c:	f8 94       	cli

0000020e <__stop_program>:
 20e:	ff cf       	rjmp	.-2      	; 0x20e <__stop_program>
