:100000000C9456000C9460000C9460000C946000FA
:100010000C9460000C9460000C9460000C946000E0
:100020000C9460000C9460000C9460000C946000D0
:100030000C9460000C9460000C9460000C946000C0
:100040000C9460000C9460000C9460000C946000B0
:100050000C9460000C9460000C9460000C946000A0
:100060000C9460000C9460000C9460000C94600090
:100070000C9460000C9460000C9460000C94600080
:100080000C9460000C9460000C9460000C94600070
:100090000C9460000C9460000C9460000C94600060
:1000A0000C9460000C9460000C94600011241FBE3E
:1000B000CFEFDAE0DEBFCDBF0E94D3000C94060183
:1000C0000C940000982F907F95B9289AE9EFF0E002
:1000D0003197F1F700C000002898E9EFF0E0319780
:1000E000F1F700C00000F0E18F9FC001112485B935
:1000F000289A89EF90E00197F1F700C00000289856
:10010000E9EFF0E03197F1F700C00000089585EACB
:100110009EE00197F1F700C0000015B815B884B152
:10012000886784B984B1876084B988E185B9289AE1
:10013000E9EFF0E03197F1F700C000002898E9EF0F
:10014000F0E03197F1F700C0000085B9289A89EFF7
:1001500090E00197F1F700C000002898E9EFF0E087
:100160003197F1F700C0000080E185B9289A89EF46
:1001700090E00197F1F700C000002898E9EFF0E067
:100180003197F1F700C0000088E20E9462008EE023
:100190000E94620008958FE00E94620008958CE042
:1001A0000E94620008958FEF87B990E498B98AB9E8
:1001B00090E29BB92FEF31EE94E021503040904017
:1001C000E1F700C0000084B90E9487002FEF31EEF4
:1001D00084E0215030408040E1F700C000000E94E0
:1001E000CB009FEF21EE34E0915020403040E1F70A
:1001F00000C000000E94CF008FEF91EE24E08150FC
:1002000090402040E1F700C00000E9CFF894FFCF14
:00000001FF
